:020000040800F2
:10000000300900202D020008AD270008FD2500085A
:10001000A927000849040008252E00080000000058
:10002000000000000000000000000000B5270008EC
:100030007104000800000000B1270008B92700087B
:10004000470200084702000847020008470200086C
:10005000470200084702000847020008470200085C
:10006000470200084702000847020008470200084C
:100070005904000847020008650400084702000808
:10008000470200084702000847020008470200082C
:100090004D04000847020008470200084702000814
:1000A000470200084702000847020008470200080C
:1000B00047020008470200084702000847020008FC
:1000C00047020008470200084702000847020008EC
:1000D000470200084702000847020008192E0008DE
:1000E00047020008470200084702000847020008CC
:1000F00047020008470200084702000847020008BC
:1001000047020008470200084702000847020008AB
:100110004702000847020008D127000847020008EC
:10012000470200084702000847020008470200088B
:10013000470200084702000847020008470200087B
:10014000470200084702000847020008470200086B
:10015000470200084702000847020008470200085B
:10016000470200084702000847020008470200084B
:10017000470200084702000847020008000000008C
:10018000470200084702000800F002F800F03EF8BD
:100190000AA090E8000C82448344AAF10107DA45E2
:1001A00001D100F033F8AFF2090EBAE80F0013F0F6
:1001B000010F18BFFB1A43F0010318473039000044
:1001C00050390000103A24BF78C878C1FAD85207D5
:1001D00024BF30C830C144BF04680C6070470000C1
:1001E0000023002400250026103A28BF78C1FBD840
:1001F000520728BF30C148BF0B6070471FB503F0DE
:1002000047FC00F0D5F81FBD10B510BD00F0E2F8B6
:100210001146FFF7F3FF03F057F900F000F903B4BC
:10022000FFF7F2FF03BC00F007F900000948804720
:1002300009480047FEE7FEE7FEE7FEE7FEE7FEE7C8
:10024000FEE7FEE7FEE7FEE704480549054A064BE0
:1002500070470000BD270008890100083003002016
:1002600030090020300500203005002053EA020C40
:1002700000F069802DE9F04B4FF00006002B1FBF06
:10028000B3FA83F503FA05F424FA05F65E4012BFCB
:100290001643B2FA82F502FA05F4C5F120051EBF35
:1002A00022FA05FC44EA0C04203556EA044C4FEAD5
:1002B000144418BF641C4FF000084FF0000990422E
:1002C00071EB030C39D3002919BFB1FA81F701FA98
:1002D00007F6B0FA80F700FA07F6C7F120071EBF4D
:1002E00020FA07FC46EA0C062037B6FBF4FCA7EB25
:1002F0000507103F07F01F0BCBF120062CFA06F67E
:100300000CFA0BFB44BFB3460026202FA4BF5E4669
:100310004FF0000B5BEA060C08BF4FF0010B19EB26
:100320000B0948EB0608ABFB027C06FB02CC0BFB7F
:1003300003CCC01B71EB0C01C1E70B4602464146E2
:100340004846BDE8F08B13B5084318BF4FF0FF30A7
:100350000146AFF30080BDE81C4070474FF000023B
:1003600000B5134694469646203922BFA0E80C50AB
:10037000A0E80C50B1F12001BFF4F7AF090728BF86
:10038000A0E80C5048BF0CC05DF804EB890028BF02
:1003900040F8042B08BF704748BF20F8022B11F02B
:1003A000804F18BF00F8012B7047704770477047A7
:1003B00070B5064C7C44064D7D4404E0204601683F
:1003C00008448047241DAC42F8D170BD543700006A
:1003D00054370000754600F02BF8AE46050069461C
:1003E000534620F00700854618B020B5FFF72CFFD4
:1003F000BDE820404FF000064FF000074FF0000826
:100400004FF0000BAC46ACE8C009ACE8C009ACE862
:10041000C009ACE8C00921F007018D46704710B54E
:100420000446AFF300802046BDE81040FFF7F7BE5A
:10043000004870471000002001491820ABBEFEE7BD
:100440002600020070470000FEE7000040F2A40012
:10045000C2F2000000F08AB940F2CC00C2F2000003
:1004600000F032BC40F22C10C2F2000000F02CBCB4
:100470007047000072B600BFFEE7000090F8202031
:10048000013A012A08D8006800F11402002013681C
:1004900019431160704700BF00F1240201204FF49E
:1004A00080211368194311607047000010B590F85F
:1004B00020E0D0F800C0AEF1010EBEF1010FDCF873
:1004C00008E011D81EF0E05F18D0CEF3016E0120D5
:1004D00000FA0EF018608B68D3B14868CC6844EA23
:1004E000C000034318E000BF00F1240101204FF4D5
:1004F00080220B681A430A6010BD00BF00F124017E
:1005000001204FF400120B681A430A6010BD00BFAF
:100510000868CB6843EA40530CEB0E10C0F88031FA
:100520000B69C0F88431097D012905D100F5C2713C
:100530000B6843F480730B605168C0F88C1112682B
:1005400000F5C071C0F88821002001220B681A4311
:100550000A6010BDB0B590F82020013A012A2FD8CA
:1005600046F20060C4F20000026842F0010202603C
:10057000026822F47C520260D1F814E0CC694A6A25
:100580000368012C43EA022202600EF01F024FF0C2
:10059000010303FA02F2C3696FEA020C23EA0203C1
:1005A000C36113D02CBBC36803EA0C03C360CB68E0
:1005B0008C8844EA034300EBCE0423640B4611E02D
:1005C000416A41F4802141620120B0BDC3681343F8
:1005D000C3600B688C8844EA034300EBCE042364B9
:1005E00001F10C038C681B8843EA044300EBCE0442
:1005F000636443688D6943EA0204D1F810E0096A34
:10060000002D08BF03EA0C0444604369BEF1000FEB
:1006100043EA020408BF03EA0C040129446102D141
:10062000C1691143C161016821F00101016000202D
:10063000B0BD00007047000010B590F82040013CAC
:10064000012C7BD8D0F800C0002900F08180DCF8B4
:100650001040A40700F081800CEB011CDCF8B041D5
:100660000CF5D87E14F004049460DCF8B04119BF96
:10067000E4085460640D1460DEF800400CF5DA7E86
:1006800004F00204D460DCF8B44124075ABFDEF859
:10069000004004F00F0408241461DEF80040002933
:1006A000C4F307249461DEF800404FEA1444546117
:1006B000DCF8B8211A70026802EB0112D2F8B821F6
:1006C0004FEA12225A70026802EB0112D2F8B821E6
:1006D0004FEA12429A70026802EB0112D2F8B82176
:1006E0004FEA1262DA70026802EB0112D2F8BC2102
:1006F0001A71026802EB0112D2F8BC214FEA1222F1
:100700005A71026802EB0112D2F8BC214FEA124280
:100710009A71026802EB0112D2F8BC214FEA126210
:10072000DA71006814BF00F1100100F10C01002023
:1007300020220B681A430A6010BD00BF00F124019B
:1007400001204FF480220B681A430A6010BD00BFDD
:10075000DCF80C40A4077FF47FAF00F124010120F6
:100760004FF400120B681A430A6010BD2DE9F04FD8
:1007700081B0044600684669D0F804908768D0F8D4
:100780000CB0D0F810A0D0F81880F10704D10025E3
:1007900030071DD424E000BFF90710D00121BA07AB
:1007A000816009D4780700F1AF80380700F1B68086
:1007B000204600F021FA02E0204600F01FFA002552
:1007C000F80500F18780F80300F1B180300707D504
:1007D0001BF0100004D0206845F400751021C160A2
:1007E000700708D51BF0080005D020680821C160FB
:1007F000204600F0A1F9B00706D52068C068800740
:1008000002D0204600F09AF9700607D51AF01000C1
:1008100004D0206845F4806510210161B00608D538
:100820001AF0080005D0206808210161204600F078
:10083000AFF9F00606D520680069800702D020468F
:1008400000F0A8F9B00308D519F0100005D0206811
:1008500010214160204600F09FF9F00308D519F0FF
:10086000080005D0206808214160204600F0D0F93A
:10087000300440F19B805FEA497040F1948006F4B7
:10088000807008EA102028435FEA8871014648BF5B
:1008900041F00201B20558BF01465FEA48700D46BB
:1008A00048BF45F00405700558BF0D46300540F1BE
:1008B0007A8018F0700000F0768010380009052862
:1008C0006CD8DFE800F003595D61656945F0080503
:1008D00064E000BF20684FF48071BA0581600BD4DA
:1008E000780515D438051DD4204600F089F9F803A1
:1008F0007FF56CAF1BE000BF204600F083F9F803E2
:100900007FF564AF13E000BF4FF4006558E700BF08
:1009100005F50055F8037FF559AF08E04FF4805511
:100920004EE700BF05F58045F8037FF54FAF20681F
:100930004FF48031BA0381600AD4780310D43803AD
:1009400014D4204600F060F930073FF541AF47E787
:10095000204600F05BF930073FF53AAF40E700BFB3
:1009600005F5004530073FF533AF39E705F580352C
:1009700030073FF52DAF33E745F010050EE000BF1F
:1009800045F020050AE000BF45F0400506E000BF45
:1009900045F0800502E000BF45F48075206881695C
:1009A00021F07001816120680421416055B1606AC5
:1009B00040EA05012046616201B0BDE8F04FFFF753
:1009C00039BE00BF01B0BDE8F08F0000B0B5C8B1BE
:1009D000044690F8200010B9204600F071F8206815
:1009E000016841F00101016000F024FC054600BFF0
:1009F00020684168C90707D100F01CFC401B0B2888
:100A0000F6D312E00120B0BD016821F002010160BF
:100A100000F010FC054600BF2068416889070DD52D
:100A200000F008FC401B0B28F6D3606A052140F457
:100A300000306062012084F82010B0BD217E026881
:100A4000012922F0800208BF80320260617E0268C4
:100A5000012922F0400208BF40320260A17E0268F4
:100A6000012922F0200208BF20320260E17E0268E4
:100A7000012922F0100218BF10320260217F0268A3
:100A8000012922F0080208BF08320260617F026873
:100A9000012922F0040208BF04320260D4E901C235
:100AA000D4E9033561691A432A431143ACF10102C9
:100AB0001143C16100200121606284F82010B0BDA3
:100AC00080B586B0016846F20040C4F20000814261
:100AD00002D006B080BD00BF002143F63002019174
:100AE000C4F20202136900F5D43043F000731361BD
:100AF000136903F000730193019B0191136843F0A4
:100B0000080313601268022302F008020192019A9E
:100B1000CDE9023109210322059101A90192049234
:100B200000F0B4FA14200021002200F039FC142057
:100B300000F022FC06B080BD7047000040F2A40126
:100B4000C2F20001884218BF704710B540F270042D
:100B5000C2F2000440F2A40004F10802C2F2000054
:100B600000212346FFF768FDA06840F20521884276
:100B7000BDE810400AD140F2282040F27001C2F2D4
:100B80000000C2F2000102F097BB00BF70470000F6
:100B9000704700007047000070470000B0B5044681
:100BA00090F8200001281DD1022084F82000206840
:100BB000016821F00101016000F03CFB054600BF27
:100BC00020684068C00713D000F034FB401B0B289E
:100BD000F6D3606A40F400306062052084F820009B
:100BE0000120B0BD606A40F4002060620120B0BD09
:100BF00000206062B0BD0000704700007047000038
:100C00007047000070470000704700007047000008
:100C10007047000070B5866D044600F00BFB94F839
:100C20003510022928D105462068216C026822F07F
:100C300016020260426922F08002426109B9A16C89
:100C400019B1016821F008010160016821F001017A
:100C5000016000BF20680068C00715D000F0EAFA04
:100C6000401B0628F6D320206065032084F8350059
:100C7000002184F8341070BD8020606501200021BF
:100C800084F8341070BD00BFE06D3F2101FA00F020
:100C9000B060012084F835000020002184F8341071
:100CA00070BD000090F83510022909D1052180F8A7
:100CB00035100068016821F00101016000207047D3
:100CC0008021416501207047F0B581B004460020C5
:100CD000009040F20800C2F200000268D4E91660F9
:100CE00048F2B51337680821C1F64E3381403942C6
:100CF000A2FB03250CD0226813685B0708D5136894
:100D000023F004031360B160616D41F0010161657E
:100D100001218140394208D022685269120604D567
:100D2000B160616D41F00201616504218140394289
:100D300008D022681268920704D5B160616D41F055
:100D40000401616510218140394217D02068026892
:100D5000120713D5B16002680168520308D4C905AF
:100D600008D4016821F008010160216C21B905E077
:100D700008033FD4216C09B120468847E16D20204B
:100D800000FA01F23A4241D020680368DB063DD503
:100D9000B26094F835300268052B1BD122F01602A0
:100DA0000260426922F080024261226C0AB9A26CA0
:100DB0001AB1026822F0080202603F208840B06049
:100DC000012084F83500216D0020002984F83400CA
:100DD00052D157E00168520310D4C90512D40168FA
:100DE00021F010010160012084F83500002084F812
:100DF000340007E0A16C0029BED1BFE7080301D48D
:100E0000616C00E0E16B09B120468847606DC8B3B2
:100E1000606DC0072ED0052084F835002068A90A2F
:100E2000026822F001020260009A01328A420092B6
:100E30001AD80268D20717D0009A01328A4200926B
:100E400012D80268D2070FD0009A01328A4200926B
:100E50000AD80268D20707D0009A01328A4200926B
:100E600002D80268D207DFD1012084F835000020C3
:100E700084F83400E16C29B1204601B0BDE8F040AF
:100E8000084700BF01B0F0BD2DE9F041044600F075
:100E9000D1F9ECB10546022084F835000020216824
:100EA00084F83400086820F00100086021680868B0
:100EB000C00711D000F0BEF9401B0528F6D9032564
:100EC00020230320636584F83550BDE8F08100BF1E
:100ED0000120BDE8F08100BF086848F23F02CFF270
:100EE0001002D4E9013500EA020C04F10C0898E87C
:100EF000C10143EA0C032B431843D4E9072E3043C6
:100F000038431043626A40EA0E00042A40EA0803AC
:100F10001CD1206BD4E90A2E40EA0E001843086069
:100F20004869BEF1000F20F0030040EA020040F0E3
:100F3000040C11D0B8F5005F36D0B8F1000F45D1E0
:100F4000022A46D0012A3BD032B942E00B60486900
:100F500020F0070040EA020C01F0F8004AF6AB224C
:100F60001038CAF6AA22A0FB02231A0943F6E4238A
:100F7000C0F600039A5C40F2FF335F284FF03F0059
:100F8000C1F814C021EA030100FA02F088BF04315D
:100F9000C4E916128860002301250020636584F8E7
:100FA0003550BDE8F08100BF032AD5D80125402384
:100FB0000120DFE802F0030E030500BF82E700BF57
:100FC000AEF1C070B0FA80F0400904E0032A04D307
:100FD000C2D1CEF300600028BED0012540230120FD
:100FE000636584F83550BDE8F081000070B590F875
:100FF00034C0BCF1010F46D04FF0010C80F834C072
:10100000D0F858E090F835C0BCF1010F38D14FF05E
:10101000020C80F835C04FF0000CC0F854C0D0F876
:1010200000C08468056CC06DDCF80060402C26F4BC
:101030008026CCF80060CCF804300B4604BF134681
:101040000A463F2101FA00F0CCF80830CCF80C2019
:10105000CEF80800DCF8000040F01600CCF80000E4
:101060002DB1DCF8000040F00800CCF80000DCF8FE
:10107000000040F00100CCF80000002070BD00BF6F
:10108000002180F83410022070BD00002DE9F04FDF
:1010900082B000F13E4241F6004502F1FF77C4F212
:1010A0000205082243F6004E4FEAB726A84208BFC1
:1010B0000722C4F2010E072E38BF4FEAB7220125DE
:1010C000002600274FF00008009208E008F1010810
:1010D0000437B8F1100F06F1020600F0A7800C6883
:1010E00005FA08F914EA090FF0D0D1F804B0032288
:1010F0000BF0030CACF10104B240012C6FEA020AC0
:1011000010D88268CC6802EA0A02B44022438260A6
:101110004268CBF3001422EA090204FA08F42243DD
:10112000426005E0BCF1030F02D14FF0030C20E058
:10113000C2688C6802EA0A02B4402243BCF1020F82
:10114000C26016D16FF0030202EA58020244D2F8DC
:1011500020C007F01C050F230C69AB402CEA0303E9
:1011600004FA05F52B431362D1F804B001250BF006
:10117000030C02680CFA06F302EA0A021A431BF493
:10118000403F0260A2D0002243F644030192C4F221
:1011900002031A684FF6084C42F480421A601A683B
:1011A000CFF6FF7C02F480420192019A28F00302FC
:1011B000724452F80C3007F00C050F24AC40A343E6
:1011C000009C04FA05F52B4342F80C30DEF80820A9
:1011D0004B6842EA090543F60C4CDC0258BF22EA90
:1011E0000905CEF80850C4F2010CDCF800209C027E
:1011F00042EA090558BF22EA0905CCF80050DEF89A
:1012000004209C0342EA090558BF22EA0905CEF8EA
:101210000450DEF80020DB0342EA090558BF22EA49
:101220000905CEF80050012550E700BF02B0BDE827
:10123000F08F000040F22830C2F2000000687047D2
:10124000B0B538B304460068D4E901124CF6CC437B
:10125000036045F25553036041608260FFF7EAFF87
:101260002168CA6892070FD0054602E0C868800767
:101270000AD0FFF7DFFF401B21683228F6D3C86889
:101280008007F3D00320B0BD4AF6AA2008600020F2
:10129000B0BD00BF0120B0BD01684AF6AA220020FF
:1012A0000A60704740F2000040F22831C2F20000AC
:1012B000C2F2000100780A6810440860704700001C
:1012C00080B543F60040C4F20200016841F40071A9
:1012D0000160016841F480610160016841F480713E
:1012E0000160032000F088F80F2000F005F800F0FE
:1012F00027F8002080BD000070B540F20006C2F261
:10130000000640F208013278C2F200014FF47A730D
:101310000968B3FBF2F20446B1FBF2F1084600F0B3
:1013200043FB0F2C4FF0010508D838B94FF0FF30C0
:1013300021460022002500F033F87460284670BD75
:1013400082B0002043F640010190C4F202014A68D5
:1013500042F480424A604A6802F480420192019A53
:101360000090086840F080500860086800F08050E5
:101370000090009802B07047002848BF7047C1B283
:1013800000F01F00012202FA00F04EF20012CEF22D
:10139000000242EAD10121F0030108607047000019
:1013A00010B54EF60C5CCEF2000CDCF80030C3F346
:1013B000022E8EF00704042C28BF0424BEF1030380
:1013C0004FF0FF3E0EFA04F438BF0023A1439940CA
:1013D0000EFA03F39A43114300F00F0200F1604349
:1013E0000901043A03F564436244002848BF02F14E
:1013F0000C03197010BD00004EF60C51CEF2000126
:101400000A684FF6FF031A4060F30A2242F0806038
:1014100040F0FD70086070472DE9F041002800F0B1
:101420008B8043F60808C4F202080446D8F8F80393
:101430000D4600F00700884207D288F8F853D8F824
:10144000F80300F00700A84276D12068810717D57D
:10145000410705D5D8F8001041F4E051C8F8001054
:10146000010705D5D8F8001041F46041C8F8001014
:10147000D8F80010A26821F0F0011143C8F800105C
:10148000C0073FD1D8F8F80300F00700A84207D9F9
:1014900088F8F853D8F8F80300F00700A8424BD1B9
:1014A0002068410707D5D8F80010E26821F4E05120
:1014B0001143C8F80010000708D5D8F800002169CA
:1014C00020F4604040EAC100C8F8000000F07CF859
:1014D000D8F8001043F6CC22C1F30311C0F6000285
:1014E000515C40F2080220FA01F140F20400C2F21D
:1014F00000000068C2F200021160FFF7FDFE00204C
:10150000BDE8F0816068811E022907D258F8081CE6
:1015100089015CBF0120BDE8F08111E0012807D1FD
:1015200058F8081C89035CBF0120BDE8F08107E082
:1015300058F8081C890703D40120BDE8F08100BFDA
:10154000D8F8001021F003010843C8F80000FFF7A5
:1015500071FE064641F28837D8F80000616800F055
:101560000C00B0EB810F8DD0FFF764FE801BB842FA
:10157000F2D90320BDE8F08140F2080043F60801EB
:10158000C2F20000C4F202010068096843F6DC22DE
:10159000C1F38221C0F60002515CC84070470000D0
:1015A00040F2080043F60801C2F20000C4F2020152
:1015B0000068096843F6DC22C1F34231C0F600023C
:1015C000515CC8407047000010B543F60404C4F2F3
:1015D0000204606800F00C0008280BD0042819BF32
:1015E00042F20040C0F2F40041F60030C0F2B70011
:1015F00010BD00BF206821682368490241F6003110
:10160000C0F2B70100F03F02C3F388105CBF42F2A2
:101610000041C0F2F401A1FB00010023FEF726FE09
:1016200021680222C1F3014102EB4101B0FBF1F05C
:1016300010BD00002DE9F04182B0002868D00446BA
:10164000007843F60006C007C4F202060BD0B0686B
:1016500000F00C00042840F09F803068800302D521
:101660006068002854D0207880071AD5B06810F040
:101670000C0F09D0B06800F00C00082840F0A680DC
:101680007068400200F1A2803068800702D5E068EF
:1016900001283DD13068216920F0F80040EAC100FE
:1016A00030602078000737D4207840074CD4A569F3
:1016B00055B3B06800F00C00082840F0BB80012D45
:1016C00026D07068E16900F480028A4220D1216A44
:1016D00000F03F028A421BD147F6C071626A0140A6
:1016E000B1EB821F14D1A16A4FF6FF73C90399436E
:1016F00000F44032A1F580318A4209D1E16A00F05C
:101700007060B0EB016F03D1002002B0BDE8F08142
:10171000012002B0BDE8F0816069002840F20000BD
:10172000C4F2472076D00121C0F8801EFFF782FD69
:10173000054600BF706F8007B6D4FFF77BFD401BE6
:101740000228F7D9DDE000BF306C10F080580AD1D4
:1017500000200190306C40F080503064306C00F01C
:1017600080500190019847F20007C4F200073868E2
:10177000C00541D4386840F480703860FFF75AFDE6
:10178000054600BF3868C00536D4FFF753FD401B3F
:101790000228F7D9B5E000BFB06800F00C000828B7
:1017A00003D1706840023FF558AF6068B0F5803FE4
:1017B00007D0B0F5A02F40F08D80306840F4802035
:1017C0003060306840F4803030608DE0E0680028A0
:1017D00052D00020C4F2472001210160FFF72AFD0A
:1017E000054600BF306880073FF554AFFFF722FD84
:1017F000401B0228F6D984E0A068012805D00528FE
:101800004ED1306F40F004003067306F40F001007F
:1018100030674FE00021C0F8801EFFF70BFD054642
:10182000706F80077FF540AFFFF704FD401B022873
:10183000F6D966E00027C4F2472700203866FFF794
:10184000F9FC022D05460BD1306880015ED5FFF70B
:10185000F1FC401B02284FF00300F5D955E700BF0B
:10186000306880017FF550AFFFF7E4FC401B022891
:101870004FF00300F4D948E70020C4F247200021CC
:101880000160FFF7D7FC0546306880077FF509AF98
:10189000FFF7D0FC401B02284FF00300F4D934E7D7
:1018A000316F002821F001013167316F21F004010F
:1018B00031674DD0FFF7BEFC054641F2883700BFC7
:1018C000306F800756D4FFF7B5FC401BB842F7D9FC
:1018D00017E000BF3168002821F4803131603168A1
:1018E00021F4802131604FD0FFF7A4FC054600BFF2
:1018F000306880033FF5B7AEFFF79CFC401B6428BF
:10190000F6D9032002B0BDE8F08100BF04F11C0548
:101910002FCD084340EA8210D9034FF6FF7291435E
:10192000A1F5803140EA0560084370600120386607
:10193000FFF780FC044600BF306880013FF5E4AE4D
:10194000FFF778FC001B02284FF00300F4D9DCE617
:10195000FFF770FC054641F2883700BF306F800703
:1019600008D5FFF767FC401BB8424FF00300F5D9DC
:10197000CBE600BFB8F1000F7FF499AE306C20F0D9
:101980008050306493E600BFFFF754FC054600BF6B
:10199000306880037FF567AEFFF74CFC401B64287E
:1019A0004FF00300F4D9B0E6411E0020B0EB116FF8
:1019B0001CBF012070474EF21002CEF200025160AF
:1019C0004EF62351CEF20001F0230B7007219060F8
:1019D00011607047704700007047000010B590F824
:1019E0003C20012A4FF0020251D080F83D200268CD
:1019F000D2F804E0D2F808C00C682EF0700323433C
:101A000041F2FF74C4F20004A24253600EDC40F2C3
:101A1000FF73C4F200039A4216DCB2F1804F2BD060
:101A200040F20043C4F2000324E000BF40F2FF3361
:101A3000C4F201039A4213DC41F60003C4F200032E
:101A40009A4219D0002313E040F60003C4F20003C9
:101A50009A4211D040F60043C4F200030AE000BFEE
:101A600044F20003C4F201039A4205D040F200435D
:101A7000C4F201039A4204D149682CF0800319434F
:101A800091600121002280F83D1080F83C20104632
:101A900010BD0000002804BF0120704710B50446A7
:101AA00090F83D0028B9002084F83C00204600F062
:101AB0001FF8022084F83D002068211D00F08EFEF2
:101AC000012084F8460084F83E0084F83F0084F842
:101AD000400084F8410084F8420084F8430084F810
:101AE000440084F8450084F83D00002010BD00004B
:101AF00080B582B0006841F20001C4F20001884262
:101B00001CBF02B080BD0020019043F64000C4F22B
:101B100002000168002241F010010160006800210C
:101B200000F01000019001983620FFF739FC3620B4
:101B300002B0BDE88040FFF71FBC000090F83D10E8
:101B400001291CBF01207047022180F83D10006868
:101B500041F2FF72C168C4F20002904241F00101FB
:101B6000C1600DDC40F2FF71C4F20001884215DC57
:101B7000B0F1804F2AD040F20041C4F2000123E0CE
:101B800040F2FF31C4F20101884213DC41F600014A
:101B9000C4F20001884219D0002113E040F6000190
:101BA000C4F20001884211D040F60041C4F20001A5
:101BB0000AE000BF44F20001C4F20101884205D0EE
:101BC00040F20041C4F20101884206D1816801F06F
:101BD0000701062904BF00207047016841F0010198
:101BE00001600020704700007047000070B5044697
:101BF0000068C5680669B10716D515F0020113D053
:101C00006FF002010161012121778069800703D013
:101C10002046FFF7E9FF05E0204600F08FF8204658
:101C200000F08EF800202077700719D515F0040019
:101C300016D020686FF004010161022121778069CC
:101C400010F4407F04D02046FFF7CEFF06E000BF2F
:101C5000204600F073F8204600F072F8002020774C
:101C6000300717D515F0080014D020686FF0080170
:101C7000016104212177C069800703D02046FFF766
:101C8000B3FF05E0204600F059F8204600F058F870
:101C900000202077F00619D515F0100016D0206826
:101CA0006FF01001016108212177C06910F4407FB5
:101CB00004D02046FFF798FF06E000BF204600F062
:101CC0003DF8204600F03CF800202077F00718BFD0
:101CD00015F0010002D1300609D412E020686FF03F
:101CE00001010161204600F02DF8300609D515F0FC
:101CF000800006D020686FF0800101612046FFF768
:101D000069FE700609D515F0400006D020686FF016
:101D100040010161204600F045F8B00658BF70BD93
:101D200015F0200008D021686FF0200220460A61DB
:101D3000BDE87040FFF750BE70BD00007047000066
:101D40007047000040F29811C2F20001884218BFAB
:101D5000704780B586B040F28C10C2F20000FFF7E9
:101D60009BFA40F22820C2F2000001F01DFB43F66E
:101D7000B420C0F6000090E80E5040698DE80E5087
:101D8000059040F2A40040F29402C2F20000C2F2B8
:101D9000000269460023FEF789FB06B0BDE88040DB
:101DA0007047000070470000704700007047000057
:101DB000B0B582B0044600680168C368426901F0AA
:101DC0002F05202D03F0200506D12DB1204602B0AD
:101DD000BDE8B04000F028BF5FEA017C1EBF02F002
:101DE000010E03F4907212EB0E0253D1226B012A02
:101DF00005D111F0100218BF13F0100236D10A06F7
:101E000022D513F080021FD094F8411021293FD130
:101E1000A168B1F5805F03D12169002900F07282C9
:101E2000216A4A1C226209784160E18C01390A0466
:101E3000E1842DD1C16821F08001C160C16841F009
:101E40004001C16002B0B0BD490621D513F0400188
:101E50001ED0C16821F04001C1602021204684F8D5
:101E6000411002B0BDE8B04000F0C6BB00210191B6
:101E7000016801914168019101994069400613D4BC
:101E8000A08DE18DE28D002A18BF884240F0BC8110
:101E900002B0B0BDCA0718BF13F4807240F0B8801A
:101EA0004A0700F1BB80C0E0E06B016849688AB274
:101EB000002AEDD0A38D9A42EAD2E185C069B0F53F
:101EC000807F00F09C80206850E8030F216820F498
:101ED000807041E80302DAB1206850E8030F2168FE
:101EE00020F4807041E8030292B1206850E8030FAB
:101EF000216820F4807041E803024AB1206850E86C
:101F0000030F216820F4807041E80302002ADAD12F
:101F1000206850E8050F216820F0010041E8050223
:101F2000DAB1206850E8050F216820F0010041E88F
:101F3000050292B1206850E8050F216820F00100E9
:101F400041E805024AB1206850E8050F216820F0F9
:101F5000010041E80502002ADAD1206850E8050FA7
:101F6000216820F0400041E80502DAB1206850E81D
:101F7000050F216820F0400041E8050292B1206879
:101F800050E8050F216820F0400041E805024AB101
:101F9000206850E8050F216820F0400041E8050264
:101FA000002ADAD1202084F8420000202063206833
:101FB00050E8030F216820F0100041E80302DAB175
:101FC000206850E8030F216820F0100041E8030268
:101FD00092B1206850E8030F216820F0100041E81A
:101FE00003024AB1206850E8030F216820F0100076
:101FF00041E80302002ADAD1E06BFEF70BFE022073
:102000006063A08DE18D401A81B2204675E100BF6A
:10201000626C42F0010262644A0706D5BEF1000F0D
:1020200003D0626C42F0020262648A0706D5BEF1F8
:10203000000F03D0626C42F004026264BCF1000F36
:1020400009D545EA0E02B2FA82F2520903D1626C56
:1020500042F008026264626C002A3FF419AF11F08A
:10206000200118BF002D03D0204600F0DDFD2068C0
:102070004069616C00F0400001F00801401800F078
:10208000B58000BF206850E8030F216820F49070ED
:1020900041E80302BAB3206850E8030F216820F436
:1020A000907041E8030272B3206850E8030F216882
:1020B00020F4907041E803022AB3206850E8030F2F
:1020C000216820F4907041E80302002ADAD11AE076
:1020D000206850E8050F216820F0010041E8050262
:1020E000DAB1206850E8050F216820F0010041E8CE
:1020F000050292B1206850E8050F216820F0010028
:1021000041E805024AB1206850E8050F216820F037
:10211000010041E80502002ADAD1206B012824D110
:10212000206850E8030F216820F0100041E8030206
:10213000DAB1206850E8030F216820F0100041E870
:10214000030292B1206850E8030F216820F01000CC
:1021500041E803024AB1206850E8030F216820F0EB
:10216000100041E80302002ADAD1202084F842005E
:10217000002020632068406940063FD5206850E871
:10218000050F216820F0400041E80502DAB120681F
:1021900050E8050F216820F0400041E8050292B1A7
:1021A000206850E8050F216820F0400041E8050252
:1021B0004AB1206850E8050F216820F0400041E84E
:1021C0000502002ADAD1E06BC0B142F62911C0F64F
:1021D00000010165FEF766FD00283FF459AEE06B93
:1021E000016D02B0BDE8B040084700BF2046FFF7D0
:1021F000DDFD0020606402B0B0BD00BF204602B02B
:10220000BDE8B040FFF7D2BD401A216851E8031F76
:10221000226821F4907142E80313DBB1216851E890
:10222000031F226821F4907142E8031393B12168DF
:1022300051E8031F226821F4907142E803134BB167
:10224000216851E8031F226821F4907142E80313CA
:10225000002BDAD1216851E8051F226821F0010125
:1022600042E80513DBB1216851E8051F226821F01F
:10227000010142E8051393B1216851E8051F226866
:1022800021F0010142E805134BB1216851E8051F17
:10229000226821F0010142E80513002BDAD1202148
:1022A00084F8421000212163216851E8031F22684D
:1022B00021F0100142E80313DBB1216851E8031F4C
:1022C000226821F0100142E8031393B1216851E81C
:1022D000031F226821F0100142E803134BB121686B
:1022E00051E8031F226821F0100142E80313002B7C
:1022F000DAD1022281B22046626302B0BDE8B0406A
:10230000FFF752BD216A31F8022B6FF35F22426062
:1023100021628AE5002804BF0120704710B50446F9
:1023200090F8410028B9002084F84000204600F0D1
:1023300021F8242084F841002068C16821F400516C
:10234000C160204600F0F0FC2068016921F4904152
:102350000161416921F02A014161C16841F40051E4
:10236000C16000202021606484F8411084F842108C
:10237000606310BD2DE9F04385B00446016844F662
:102380000000C4F20000814202D005B0BDE8F08335
:10239000002643F630010096C4F202010A6946F2B3
:1023A000280842F480220A610A6900F5E03002F44C
:1023B00080220092009A00960A68C4F2020842F055
:1023C00004020A60096801F00401009100994FF4C9
:1023D000406100910221CDE90116032103910721FB
:1023E00004916946FEF752FE40F2CC05C2F20005A8
:1023F0004FF000674FF480692846C5E90087C5E9BA
:102400000266C5E90496C5E90666C5E90866FEF7F1
:102410003BFD002818BFFEF72DF8E563AC6340F2E2
:102420002C1508F13000C2F200054021C5E9000773
:1024300005F1080080E842022846C5E90566C5E9BD
:1024400007666E62FEF720FD002818BFFEF712F83F
:10245000272000210022A563AC63FEF7A1FF2720FF
:10246000FEF78AFF05B0BDE8F083000070B582B0CA
:10247000044690F8420020280AD113460A46002953
:102480004FF0010018BF002B06D102B070BD00BF95
:10249000022002B070BD00BF002622202663A26287
:1024A000A385666484F842002168E06B42F6B12C93
:1024B00042F6114E42F63515C0F6000CC0F6000E7D
:1024C000C0F600050431C0E90FCEC0E91356FEF78F
:1024D0008DFD019620680168019140680190019886
:1024E000206928B3206850E8030F216840F4807009
:1024F00041E80302E2B1206850E8030F216840F48C
:10250000807041E803029AB1206850E8030F216807
:1025100040F4807041E8030252B1206850E8030F94
:10252000216840F4807041E80302002ADAD100BF3C
:10253000206850E8050F216840F0010041E80502DD
:10254000E2B1206850E8050F216840F0010041E841
:1025500005029AB1206850E8050F216840F001009B
:1025600041E8050252B1206850E8050F216840F0AB
:10257000010041E80502002ADAD100BF206850E8D6
:10258000050F216840F0400041E80502DAB12068FB
:1025900050E8050F216840F0400041E8050292B183
:1025A000206850E8050F216840F0400041E805022E
:1025B0004AB1206850E8050F216840F0400041E82A
:1025C0000502002ADAD1002002B070BD40F2E0110D
:1025D000C2F20001884218BF704710B540F2E824EB
:1025E000C2F20004204600F0E9FC2046BDE810409D
:1025F00000F004BD7047000070470000FEE70000D7
:1026000080B540F2A40046F20041C2F20000C4F2DC
:1026100000010322002380E80E0000F10C014FF4BA
:10262000102C4FF4001E81E8085083618383FEF76D
:10263000CDF9002808BF80BDBDE88040FDF71ABF76
:1026400080B582B00020019043F63000C4F2020051
:102650000168002241F4001101600068002100F4CB
:102660000010019001980C20FEF79AFE0C20FEF756
:1026700083FE0E2000210022FEF792FE0E2002B003
:10268000BDE88040FEF778BE81B0002043F63001FF
:102690000090C4F202010A6842F001020A600A686E
:1026A00002F001020092009A00900A6842F00802CB
:1026B0000A600A6802F008020092009A00900A6814
:1026C00042F004020A600A6802F004020092009AD2
:1026D0000090086840F080000860086800F0800002
:1026E0000090009801B0704780B540F28C1043F222
:1026F0000001C2F20000C4F20001012240F6FF73A3
:1027000080E80E00FEF79CFD002808BF80BDBDE8F4
:102710008040FDF7AFBE000080B582B040F2981057
:1027200041F200020021C2F20000C4F20002532371
:1027300040F2E73CCDE90011C0E90023C0E9021CEA
:102740008161FFF7A7F9002818BFFDF793FE40F25B
:102750009810C2F200006946FFF740F9002818BF40
:10276000FDF788FE02B080BD80B540F2E01044F66F
:102770000001C2F20000C4F2000148F2A06200238E
:102780004FF00C0CC0F2010280E80E00C0E90333E8
:10279000C0E905C3C361FFF7BDFD002808BF80BDC8
:1027A000BDE88040FDF766BEFEE70000FEE70000E2
:1027B0007047000070470000FEF774BD4EF6885069
:1027C000CEF20000016841F4700101607047000022
:1027D00040F29810C2F20000FFF708BA10B540F6B8
:1027E000FF3E0368C4F2000E40F2004C7045C4F294
:1027F000010C27DCB0F1804F31D040F20042C4F22E
:10280000000290422BD040F60002C4F20002904237
:1028100025D041F6FF72C4F20002904229DC7045D7
:102820003CDCB0F1804F5FD040F20042C4F20002C5
:10283000904259D040F60002C4F20002904253D0B8
:1028400056E000BF40F60042C4F20002904206D0BB
:10285000604504D00022C4F201029042D9D14A68F6
:1028600023F07003134341F6FF72C4F2000290425A
:10287000D5DD43F6FF72C4F20102904222DC42F23F
:102880000002C4F2000290422ED00022C4F20102E3
:10289000904229D0604527D02AE000BF40F6004290
:1028A000C4F2000290421FD041F60002C4F20002BE
:1028B000904219D041F60042C4F20002904213D077
:1028C00016E000BF44F20002C4F2010290420BD0B5
:1028D00044F60002C4F20102904205D044F20042E4
:1028E000C4F20102904203D1CA6823F44073134337
:1028F00023F080024B69D1F800E08C681A43026033
:10290000C46240F48062C0F828E0624504BF0969EF
:102910000163012141610169C90708BF10BD016957
:1029200021F00101016110BD806B0021C185C184CE
:10293000FFF73CBA806B01684A6990F84130212B5F
:102940002DD112F080022AD00021C184016851E803
:10295000031F026821F0C00142E80313DBB10168E4
:1029600051E8031F026821F0C00142E8031393B14C
:10297000016851E8031F026821F0C00142E8031317
:102980004BB1016851E8031F026821F0C00142E821
:102990000313002BDAD1202180F841100168496926
:1029A00090F84220222A40F07D8011F0400179D039
:1029B0000021C185016851E8031F026821F490716C
:1029C00042E80313BBB3016851E8031F026821F416
:1029D000907142E8031373B3016851E8031F026862
:1029E00021F4907142E803132BB3016851E8031FEF
:1029F000026821F4907142E80313002BDAD11AE047
:102A0000016851E8051F026821F0010142E8051341
:102A1000DBB1016851E8051F026821F0010142E8BD
:102A2000051393B1016851E8051F026821F0010107
:102A300042E805134BB1016851E8051F026821F017
:102A4000010142E80513002BDAD1016B012924D1E1
:102A5000016851E8031F026821F0100142E80313E6
:102A6000DBB1016851E8031F026821F0100142E860
:102A7000031393B1016851E8031F026821F01001AC
:102A800042E803134BB1016851E8031F026821F0CB
:102A9000100142E80313002BDAD1202180F8421004
:102AA00000210163416C41F010014164FFF77EB9E0
:102AB0000168806B0968C90500F19F800021C1850C
:102AC000016851E8031F026821F4807142E8031392
:102AD000E3B1016851E8031F026821F4807142E804
:102AE00003139BB1016851E8031F026821F4807150
:102AF00042E8031353B1016851E8031F026821F44F
:102B0000807142E80313002BDAD100BF016851E85D
:102B1000051F026821F0010142E80513BBB30168FB
:102B200051E8051F026821F0010142E8051373B363
:102B3000016851E8051F026821F0010142E8051310
:102B40002BB3016851E8051F026821F0010142E83A
:102B50000513002BDAD11AE0016851E8051F02685D
:102B600021F0400142E80513DBB1016851E8051F7F
:102B7000026821F0400142E8051393B1016851E871
:102B8000051F026821F0400142E805134BB10168BE
:102B900051E8051F026821F0400142E80513002BAF
:102BA000DAD1202180F84210016B012925D100BF24
:102BB000016851E8031F026821F0100142E8031385
:102BC000DBB1016851E8031F026821F0100142E8FF
:102BD000031393B1016851E8031F026821F010014B
:102BE00042E803134BB1016851E8031F026821F06A
:102BF000100142E80313002BDAD100214163016B7D
:102C0000012918BFFFF7E2BC818DFFF7CDB80000A6
:102C1000806B01214163016B012918BFFFF7EABCFA
:102C2000818D4908FFF7C0B881B090F84210222981
:102C300021D183680246B3F5805F09D152F8281F7D
:102C400052F8183C002B63D003685B680AE000BFB1
:102C500052F8281F13B90369002BF5D003685B688D
:102C600003F07F030B70116801311160C18D0139D0
:102C70000A04C18502D001B0704700BF0168CA686C
:102C800022F02002CA60CA6822F48072CA604A69CF
:102C900022F001024A61202180F8421000214163A4
:102CA000026B012A3CD10163016851E8031F0268ED
:102CB00021F0100142E80313DBB1016851E8031F62
:102CC000026821F0100142E8031393B1016851E852
:102CD000031F026821F0100142E803134BB10168A1
:102CE00051E8031F026821F0100142E80313002B92
:102CF000DAD101680A68D20606D5002200920A6875
:102D00000092496800910099818D01B0FFF74CB89D
:102D1000026852686FF35F2221F8022B8162A5E7F7
:102D200001B0FFF753BC000010B504460068D4E9B9
:102D300002C22369016921F44051114301616269B2
:102D400043EA0C01E3691143C268194349F20C6379
:102D50009A431143C1604169A26921F4407141F273
:102D60000043114340F48062C4F201039A4241617E
:102D700002D1FEF715FC01E0FEF7FEFBE169636896
:102D80001922B1F5004FA0FB020123D15A00DB0F3D
:102D9000FDF76CFA48F21F51C5F2EB11A0FB0123BD
:102DA0005A094FF69C73C0F6FF7303F1805302FB80
:102DB0000300322303EBC000A0FB01014FF4F870C5
:102DC00000EA111000EB0210C1F34211084421681F
:102DD000886010BD9A009B0FFDF748FA48F21F511A
:102DE000C5F2EB11A0FB01235A094FF69C73C0F604
:102DF000FF7302FB0300322303EB0010A0FB010171
:102E0000F02000EA511000EB0210C1F34311084416
:102E10002168886010BD000040F2E010C2F200009E
:102E2000FEF7C6BFFEE70000B0B5A0B040F2E82054
:102E3000C2F2000000F050F940F20C00DFED1B0A76
:102E4000C2F2000012AD9FED180A0488B0EE082A05
:102E50002846B0EE601AF0EE601A00F07FF99FEDA0
:102E6000140ADFED140A9FED141ADFED141A9FED1A
:102E7000142A04A800F072F942F6C96C0021CDE9C9
:102E8000005040F228209FED0F0AC0F6000C02917E
:102E9000C2F20000022122460123CDF80CC000F04E
:102EA000A5FA20B0B0BD00BFBC74933B0000000089
:102EB0000000B442CDCCCC3D00003442000048427A
:102EC000000016449B5C59439FED081A9FED082AA9
:102ED00020EE011A20EE022A21EE000A9FED051ACB
:102EE00030EE020A30EE010A704700BFF7CC92B80C
:102EF00017B751BB029A483EB0B592B0002443F6D2
:102F000040000A94CDE908440594CDE90344CDE995
:102F100001440094C4F202000168022541F080518E
:102F20000160006800F08050009047F200000094BB
:102F3000C4F20000016841F480410160006800F4BF
:102F400080400090092006904FF4803007900120C7
:102F50000B904FF480000D9006200E90A820CDE934
:102F60000F050420119006A80C95FEF763FB18B11D
:102F700072B600BFFEE700BF0F20CDE901054FF498
:102F8000A05004904FF48050059001A805210394AF
:102F9000FEF742FA10B172B6FEE700BF12B0B0BD44
:102FA000B0EEC01AB0EEE02AB4EE421AF1EE10FA1A
:102FB000B8BFF0EE400AB0EE600A704710B50446A4
:102FC00040F2E010C2F2000021461222FFF74EFA52
:102FD0002078D4F80110A074C4F81310D4F80500B8
:102FE000D4F80910C4F81700C4F81B10D4F80D0069
:102FF000617CC4F81F0084F8231010BD2DE9F04354
:10300000427D017D857DD7084FEA911905F00108C1
:1030100047EA55054FF6004790F812C0C37C01F00F
:103020003F04C17DCFF6FF7749EA82023A4303F0BD
:10303000070E4CEA070647EAD30302EB882261F346
:10304000CA1506EB0E2603EB441303EE102AA5F572
:10305000806200EE106A9FED1F1A02EE103A04EE35
:10306000102AB8EEC00AB8EEC22AB8EEC33AB8EEDB
:10307000C44A80EE010A82EE012A83EE013A84EE10
:10308000011A8A09C1F301114B1E4FF6F871022B88
:10309000C0F2FF0180ED090A80ED0A2A80ED0B3AAB
:1030A00080ED0C1A07D801EAC3034FF4813727FAE1
:1030B00003F380F83530013A022A88BFBDE8F08377
:1030C00001EAC2014FF4813222FA01F180F8341092
:1030D000BDE8F083000025440021C4F22011C0E9BE
:1030E0000E11704710B5044694ED092A80ED000AD0
:1030F000006A30EE601A94ED050AC4ED010A71EE23
:10310000020AA06284ED081AFFF74AFF94ED034A11
:1031100084ED090A94ED082A94ED023A20EE040A9F
:1031200094ED0A4A94ED045A94ED061A23EE023AFD
:1031300032EE442A25EE022A84ED0C0A33EE000A10
:1031400070EE020AB0EE410A84ED0B3A84ED0D2ACE
:10315000FFF726FF84ED070A10BD000000F108010B
:1031600081EC040A0021C0E90011C0E90711C0E99F
:103170000911C0E90B11416380ED062A7047000078
:1031800010B5044690F8370010B19FED450A37E0BE
:1031900094F8380000B394ED0A0AD4ED0F0A04F154
:1031A0007C00FFF79FFF94ED0F1AD4F8BC0084ED6C
:1031B000090AB0EE410A804794ED0F1AD4F8BC001A
:1031C00084ED2E0AB0EE410A8047B0EE401A94ED2D
:1031D000090A84ED2D1A0DE00020C4F2F010D4EDA0
:1031E000010AA06204F17C00B3EE0E0AFFF77AFF39
:1031F00084ED090AD4ED060A04F14400FFF772FFDA
:10320000A08E40F2FF21884284ED0B0A03D040F2E9
:10321000FF1188420CD194ED0C1AB5EE401AF1EE74
:1032200010FA13D149F65860CFF6FF70206210BD36
:1032300094ED0C1AB5EE401AF1EE10FA18D14CF2DA
:103240000000CFF6FF70206210BD00BF94ED2E2A63
:1032500030EE020A9FED132A31EE000A20EE020A38
:1032600031EE011A80EE010A9FED0F1A10E000BF47
:1032700094ED2D2A30EE020A9FED0C2A31EE000A61
:1032800020EE020A31EE011A80EE010A9FED081AC3
:1032900030EE010ABDEEC00A10EE100A206210BD29
:1032A00000000000005043470050C3C60000004724
:1032B000000080C600000000B0B52DED028B90ED3F
:1032C000038A044680ED048A08880D46C0BA00F0DF
:1032D000C9FA9FED2B0B53EC102B00F0DBFA9FED9E
:1032E0002A0B53EC102B00F063F900F02FF900EEDD
:1032F000100A9FED291A30EE488AB4EE418AF1EEA9
:1033000010FAE06002DA9FED270A08E09FED230A39
:10331000B4EE408AF1EE10FA03DD9FED210A38EE9B
:10332000008A84ED058A6888C0BA00F09BFA9FED98
:10333000180B53EC102B00F0ADFA00F007F994EDE8
:10334000000A94ED011A88EE000AA06194F840008A
:103350000138012830EE011A84ED011A84ED020AC9
:10336000A98808BA4FEA1040A0839CBFA879E083DF
:103370002046BDEC028BBDE8B040FFF701BF00BFA7
:1033800000000000008076400000000000FFBF4009
:103390000000000000001840000034C30000344367
:1033A0000000B4C30000B44380B5D0F820E090F82A
:1033B00036006FF0080340F29402052838BF4FF042
:1033C000FF33C2F200026FF009014FEA1E2C28BF42
:1033D0000832052838BF6FF0010103EB400301EB11
:1033E000400002F803E002F800C080BD2DE9F04182
:1033F000DDE9085CDDE9064E80ED030A828680F88F
:10340000363080F8385080F84010D4E90083D4E991
:103410000256D4E90427C0E91356C0E91527C0E9CC
:103420001183D4E90683D4E90856D4E90A27C0E910
:103430001956C0E91B27C0E91783D4E90C320229C9
:10344000C0E91D32DEF814609EE8BC00C0F8906050
:1034500000F17C06BCC6DEF82C600EF11807BCCF6C
:10346000C0F8A86000F19406BCC6DEE90C32C0F8D2
:10347000BCC0C0E92B324FF00002C0E90122426219
:10348000C262C26380F83720C0E92D22C0E904225D
:103490008261C26188BFBDE8F08105A207A352F82E
:1034A000212053F8211002600163BDE8F08100BFC4
:1034B00027A09941000010420000803F00002041F9
:1034C0000000A041000040408AB0FDF7F9FEFFF780
:1034D00013FDFFF7D9F8FFF7B3F8FFF791F8FFF7FF
:1034E00003F9FFF741F9FFF717F940F2E010C2F2D4
:1034F00000000068C16841F01001C16040F29810FE
:10350000C2F20000FEF71AFB6C4620462821FCF7A9
:1035100025FF0E2040F2A40505900120C2F200050F
:10352000CDE9070028462146FDF714F82846FDF7A7
:1035300035FB28460221FCF7A1FF40F2E820C2F249
:103540000000FFF73BFD00BFFEE7000021F0004256
:1035500001F00043A2F16052B2F5801F28BFD2F102
:103560007F6C0BD95FEA001C43EAC20242EB507049
:1035700018BF704728BF20F001007047B2F5801FC8
:10358000BCBF184670474FEA410C1CF5001F02D221
:10359000084600F08ABA70B500F026FA00000089EB
:1035A000FFF7F6BF4FF00040A0F580007047000025
:1035B0002DE9C04130B4DFF8A4C23CEA111418BFB1
:1035C0003CEA131400F0ED801CEA111481EA0305B3
:1035D00044EAD57418BF1CEA131500F0C880A4EBA8
:1035E000050404F17F7404F500344FF0004545EA0A
:1035F000C12145EAC32341EA505143EA52534FEAFD
:10360000C0204FEAC222994208BF904200F09D803C
:103610004FEA13650FF24416765D4FEA134506FB39
:1036200005F7C7F1807706FB07F74FEAD737A7FB07
:1036300003687642A7FB06CEC8F5803838BFA8F1EC
:10364000010807FB08E6A6FB028C4FF0000EE6FB24
:1036500003CEDCF1000CCEF1004E38BFAEF1010E0E
:10366000A6FB0C584FF00007E6FB0E87A1FB08C62F
:10367000A0FB07CE16EB0E064FF0000545F1000546
:10368000E1FB076515F1E04E7EBFA4F580345FEAEB
:1036900046066D4116F1800745F100054FEA1727F0
:1036A00047EA05674FEA15254FEA0666A6F1DE46AA
:1036B000B6F1805F20D9384605EBC47124F0010CC7
:1036C00001EB0C11BCF1FE6F02D8F0BCBDE800812B
:1036D00024425CBF01F5801E9EEAC47F02D4F0BC88
:1036E000BDE80081244200F13980A1F1C041F0BC65
:1036F000BDE8004100F0C6B94FEAD02040EA415091
:103700004FEAD1214FEAD22242EA43524FEAD32371
:10371000A7FB028607FB036605FB02661EEA0E0F87
:1037200058BFA6EB0056B6EB00564FEA520E4EEAD3
:10373000C37E18EB0E0E56EB530EBCD518EB0208E9
:103740005E417F1C55F10005B5E74FF480154FF041
:1037500000074FF000064FF00008ACE701F1C04150
:1037600001F000414FF00000F0BCBDE800810CEA20
:10377000131511EA0C1F00D00CE013EA0C1F00F027
:1037800026804FF0000081EA030101F00041F0BC07
:10379000BDE80081F0BCBDE8004181EA030100F012
:1037A00071B9F0BCBDE8004170B500F01DF900BF73
:1037B000097EFC3E00F007B84FF0000081EA0301EB
:1037C00001F00041704781EA030100F05BB9F0BCF1
:1037D000BDE8004122494FF000007047FFFDFBF9B2
:1037E000F7F5F4F2F0EEEDEBE9E8E6E4E3E1E0DE34
:1037F000DDDBDAD8D7D5D4D3D1D0CFCDCCCBCAC8A6
:10380000C7C6C5C4C2C1C0BFBEBDBCBBBAB9B8B7CC
:10381000B6B5B4B3B2B1B0AFAEADACABAAA9A8A8BF
:10382000A7A6A5A4A3A3A2A1A09F9F9E9D9C9C9B8D
:103830009A99999897979695959493939291919038
:103840008F8F8E8E8D8C8C8B8B8A898988888787C9
:103850008685858484838382828181800000FF073E
:103860000000F87F10F0004248BF4042B0FA80F3F9
:1038700010FA03F10AD0C3F11D0303F5806302EBD4
:1038800003524FEA415002EBD12170474FF0000044
:103890007047000070B5DFF848C11CEA111E1EBF5A
:1038A0001CEA13159EEA0C0F95EA0C0F00F06F80CE
:1038B00081EA03044EEAD47EAE4421EA4C1123EAA5
:1038C0004C1341F4801143F48013AEF17F7EA1FBD1
:1038D000024CA0FB0365361955EB0C05A1FB034C0C
:1038E0004CF10003A0FB021C16EB0C06654153F1E2
:1038F0000003094218BF46F0010613F4007F0BD104
:103900004FEA03314FEA053041EA155140EA1650BB
:1039100034036FF003020AE04FEAC3214FEAC520E7
:1039200041EA555140EA5650F4026FF0020202EBB0
:103930002E4201EB025585EACE710AD05FEA440CB3
:1039400018BF24F0004450F1000041F1000120EACA
:10395000D47040F2FE7C624500D270BDA84214BF14
:103960004FF080444FF04044002E08BF0024BEF1C9
:10397000806FA8BFA1F1C041BDE8704080F2828095
:1039800001F1C04101F000414FF0000070470CEA26
:1039900013159EEA0C0F18BF95EA0C0F06D081EAAA
:1039A000030E4FF000000EF0004170BD00F01CF857
:1039B0008900013E00F007B800F009B84FEA430C57
:1039C0005FEA5C5C08D081EA030100F05BB84FEA73
:1039D000410C5FEA5C5CF6D102494FF00000704791
:1039E0000000FF070000F87F0EF1020E2EF0030E1C
:1039F0005EF8046B364205D4012A43EB030515F546
:103A0000001F12D8012841EB010C1CF5001F0CD837
:103A10000ED14FEAD17C0CEB4C0C0CF1020C15F5DD
:103A2000001F08BF4CEBD37C04E04FF0080C01E012
:103A30004FEAD37C0CEB4C0526FA05F606F0070698
:103A4000B6F1040C06D20EEB860CBDE870404CF0CB
:103A5000010C6047DFE80CF0090B02024FF0004157
:103A6000A1F500214FF0000070BD19461046012855
:103A700051EB010418BFD4F5001484BF002001F0FD
:103A8000004170BD0808A0F500114FEA31017047F0
:103A9000F1EE100A4FF6FF71C0F2C03120EA0100CA
:103AA00040F04070E1EE100A7047FF2141EAD0502B
:103AB000C0057047FF01000000000000000000008A
:103AC00000000000080000000000000000000000EE
:103AD00000000000010203040607080900000000BE
:103AE000010203040006101600061016103B000821
:103AF0000000002010000000C4010008203B000866
:103B00001000002020090000E00100081DF3FFFF65
:103B100001000000100000000024F400FF0100007C
:040000050800018965
:00000001FF
